{
  "address": "0x467aE64224590aF495ee2becfaAFa5Af2D994685",
  "abi": [
    {
      "inputs": [
        {
          "internalType": "uint256",
          "name": "_usdc_to_sarco_rate",
          "type": "uint256"
        },
        {
          "internalType": "uint256",
          "name": "_vesting_end_delay",
          "type": "uint256"
        },
        {
          "internalType": "uint256",
          "name": "_offer_expiration_delay",
          "type": "uint256"
        },
        {
          "internalType": "address[]",
          "name": "_sarco_purchasers",
          "type": "address[]"
        },
        {
          "internalType": "uint256[]",
          "name": "_sarco_allocations",
          "type": "uint256[]"
        },
        {
          "internalType": "uint256",
          "name": "_sarco_allocations_total",
          "type": "uint256"
        },
        {
          "internalType": "address",
          "name": "_usdc_token",
          "type": "address"
        },
        {
          "internalType": "address",
          "name": "_sarco_token",
          "type": "address"
        },
        {
          "internalType": "address",
          "name": "_general_token_vesting",
          "type": "address"
        },
        {
          "internalType": "address",
          "name": "_sarco_dao",
          "type": "address"
        }
      ],
      "stateMutability": "nonpayable",
      "type": "constructor"
    },
    {
      "anonymous": false,
      "inputs": [
        {
          "indexed": false,
          "internalType": "uint256",
          "name": "started_at",
          "type": "uint256"
        },
        {
          "indexed": false,
          "internalType": "uint256",
          "name": "expires_at",
          "type": "uint256"
        }
      ],
      "name": "OfferStarted",
      "type": "event"
    },
    {
      "anonymous": false,
      "inputs": [
        {
          "indexed": true,
          "internalType": "address",
          "name": "sarco_receiver",
          "type": "address"
        },
        {
          "indexed": false,
          "internalType": "uint256",
          "name": "sarco_allocation",
          "type": "uint256"
        },
        {
          "indexed": false,
          "internalType": "uint256",
          "name": "usdc_cost",
          "type": "uint256"
        }
      ],
      "name": "PurchaseExecuted",
      "type": "event"
    },
    {
      "anonymous": false,
      "inputs": [
        {
          "indexed": false,
          "internalType": "uint256",
          "name": "amount",
          "type": "uint256"
        }
      ],
      "name": "TokensRecovered",
      "type": "event"
    },
    {
      "inputs": [],
      "name": "GENERAL_TOKEN_VESTING",
      "outputs": [
        {
          "internalType": "address",
          "name": "",
          "type": "address"
        }
      ],
      "stateMutability": "view",
      "type": "function"
    },
    {
      "inputs": [],
      "name": "SARCO_DAO",
      "outputs": [
        {
          "internalType": "address",
          "name": "",
          "type": "address"
        }
      ],
      "stateMutability": "view",
      "type": "function"
    },
    {
      "inputs": [],
      "name": "SARCO_TOKEN",
      "outputs": [
        {
          "internalType": "contract IERC20",
          "name": "",
          "type": "address"
        }
      ],
      "stateMutability": "view",
      "type": "function"
    },
    {
      "inputs": [],
      "name": "USDC_TOKEN",
      "outputs": [
        {
          "internalType": "contract IERC20",
          "name": "",
          "type": "address"
        }
      ],
      "stateMutability": "view",
      "type": "function"
    },
    {
      "inputs": [
        {
          "internalType": "address",
          "name": "_sarco_receiver",
          "type": "address"
        }
      ],
      "name": "execute_purchase",
      "outputs": [],
      "stateMutability": "nonpayable",
      "type": "function"
    },
    {
      "inputs": [
        {
          "internalType": "address",
          "name": "_sarco_receiver",
          "type": "address"
        }
      ],
      "name": "get_allocation",
      "outputs": [
        {
          "internalType": "uint256",
          "name": "",
          "type": "uint256"
        },
        {
          "internalType": "uint256",
          "name": "",
          "type": "uint256"
        }
      ],
      "stateMutability": "view",
      "type": "function"
    },
    {
      "inputs": [],
      "name": "offer_expiration_delay",
      "outputs": [
        {
          "internalType": "uint256",
          "name": "",
          "type": "uint256"
        }
      ],
      "stateMutability": "view",
      "type": "function"
    },
    {
      "inputs": [],
      "name": "offer_expired",
      "outputs": [
        {
          "internalType": "bool",
          "name": "",
          "type": "bool"
        }
      ],
      "stateMutability": "view",
      "type": "function"
    },
    {
      "inputs": [],
      "name": "offer_expires_at",
      "outputs": [
        {
          "internalType": "uint256",
          "name": "",
          "type": "uint256"
        }
      ],
      "stateMutability": "view",
      "type": "function"
    },
    {
      "inputs": [],
      "name": "offer_started",
      "outputs": [
        {
          "internalType": "bool",
          "name": "",
          "type": "bool"
        }
      ],
      "stateMutability": "view",
      "type": "function"
    },
    {
      "inputs": [],
      "name": "offer_started_at",
      "outputs": [
        {
          "internalType": "uint256",
          "name": "",
          "type": "uint256"
        }
      ],
      "stateMutability": "view",
      "type": "function"
    },
    {
      "inputs": [],
      "name": "recover_unsold_tokens",
      "outputs": [],
      "stateMutability": "nonpayable",
      "type": "function"
    },
    {
      "inputs": [
        {
          "internalType": "address",
          "name": "",
          "type": "address"
        }
      ],
      "name": "sarco_allocations",
      "outputs": [
        {
          "internalType": "uint256",
          "name": "",
          "type": "uint256"
        }
      ],
      "stateMutability": "view",
      "type": "function"
    },
    {
      "inputs": [],
      "name": "sarco_allocations_total",
      "outputs": [
        {
          "internalType": "uint256",
          "name": "",
          "type": "uint256"
        }
      ],
      "stateMutability": "view",
      "type": "function"
    },
    {
      "inputs": [],
      "name": "start",
      "outputs": [],
      "stateMutability": "nonpayable",
      "type": "function"
    },
    {
      "inputs": [],
      "name": "usdc_to_sarco_rate",
      "outputs": [
        {
          "internalType": "uint256",
          "name": "",
          "type": "uint256"
        }
      ],
      "stateMutability": "view",
      "type": "function"
    },
    {
      "inputs": [],
      "name": "vesting_end_delay",
      "outputs": [
        {
          "internalType": "uint256",
          "name": "",
          "type": "uint256"
        }
      ],
      "stateMutability": "view",
      "type": "function"
    }
  ],
  "transactionHash": "0x0b43fd22944be33e5f92670ea25f194186629fccaba679ccc8a6f34ca6df4b98",
  "args": [
    1,
    100,
    1000,
    [
      "0xaf6c936a0a48b8ffbf8c4725cc2d44af126904aa",
      "0xb1a5baace5444e7793035cbe9d58b4597655bfe3",
      "0x6d21266dfcf5541bee9f67c4837aaa72b3bf9303"
    ],
    [
      110,
      120,
      130
    ],
    360,
    "0xa0b86991c6218b36c1d19d4a2e9eb0ce3606eb48",
    "0x7697b462a7c4ff5f8b55bdbc2f4076c2af9cf51a",
    "0x8727c592F28F10b42eB0914a7f6a5885823794c0",
    "0xAE9B102741a1B60C221e39CD9526Ab38c9865AB3"
  ],
  "solcInputHash": "42931c9d3467ec006fb2f25d515d65b0",
  "bytecode": "0x60806040523480156200001157600080fd5b5060405162002d5a38038062002d5a833981810160405281019062000037919062000848565b60008a116200007d576040517f08c379a0000000000000000000000000000000000000000000000000000000008152600401620000749062000b3e565b60405180910390fd5b60008911620000c3576040517f08c379a0000000000000000000000000000000000000000000000000000000008152600401620000ba9062000c4e565b60405180910390fd5b6000881162000109576040517f08c379a0000000000000000000000000000000000000000000000000000000008152600401620001009062000bc6565b60405180910390fd5b855187511462000150576040517f08c379a0000000000000000000000000000000000000000000000000000000008152600401620001479062000c0a565b60405180910390fd5b600073ffffffffffffffffffffffffffffffffffffffff168473ffffffffffffffffffffffffffffffffffffffff161415620001c3576040517f08c379a0000000000000000000000000000000000000000000000000000000008152600401620001ba9062000cb4565b60405180910390fd5b600073ffffffffffffffffffffffffffffffffffffffff168373ffffffffffffffffffffffffffffffffffffffff16141562000236576040517f08c379a00000000000000000000000000000000000000000000000000000000081526004016200022d9062000c92565b60405180910390fd5b600073ffffffffffffffffffffffffffffffffffffffff168273ffffffffffffffffffffffffffffffffffffffff161415620002a9576040517f08c379a0000000000000000000000000000000000000000000000000000000008152600401620002a09062000b82565b60405180910390fd5b600073ffffffffffffffffffffffffffffffffffffffff168173ffffffffffffffffffffffffffffffffffffffff1614156200031c576040517f08c379a0000000000000000000000000000000000000000000000000000000008152600401620003139062000b60565b60405180910390fd5b8960048190555088600a819055508760078190555084600581905550836000806101000a81548173ffffffffffffffffffffffffffffffffffffffff021916908373ffffffffffffffffffffffffffffffffffffffff16021790555082600160006101000a81548173ffffffffffffffffffffffffffffffffffffffff021916908373ffffffffffffffffffffffffffffffffffffffff16021790555081600260006101000a81548173ffffffffffffffffffffffffffffffffffffffff021916908373ffffffffffffffffffffffffffffffffffffffff16021790555080600360006101000a81548173ffffffffffffffffffffffffffffffffffffffff021916908373ffffffffffffffffffffffffffffffffffffffff1602179055506000805b88518110156200067f57600089828151811062000485577f4e487b7100000000000000000000000000000000000000000000000000000000600052603260045260246000fd5b60200260200101519050600073ffffffffffffffffffffffffffffffffffffffff168173ffffffffffffffffffffffffffffffffffffffff16141562000502576040517f08c379a0000000000000000000000000000000000000000000000000000000008152600401620004f99062000c2c565b60405180910390fd5b6000600660008373ffffffffffffffffffffffffffffffffffffffff1673ffffffffffffffffffffffffffffffffffffffff168152602001908152602001600020541462000587576040517f08c379a00000000000000000000000000000000000000000000000000000000081526004016200057e9062000c70565b60405180910390fd5b6000898381518110620005c3577f4e487b7100000000000000000000000000000000000000000000000000000000600052603260045260246000fd5b602002602001015190506000811162000613576040517f08c379a00000000000000000000000000000000000000000000000000000000081526004016200060a9062000ba4565b60405180910390fd5b80600660008473ffffffffffffffffffffffffffffffffffffffff1673ffffffffffffffffffffffffffffffffffffffff16815260200190815260200160002081905550808462000665919062000d6e565b935050508080620006769062000e3f565b9150506200043f565b50858114620006c5576040517f08c379a0000000000000000000000000000000000000000000000000000000008152600401620006bc9062000be8565b60405180910390fd5b505050505050505050505062001330565b6000620006ed620006e78462000cff565b62000cd6565b905080838252602082019050828560208602820111156200070d57600080fd5b60005b85811015620007415781620007268882620007c0565b84526020840193506020830192505060018101905062000710565b5050509392505050565b6000620007626200075c8462000d2e565b62000cd6565b905080838252602082019050828560208602820111156200078257600080fd5b60005b85811015620007b657816200079b888262000831565b84526020840193506020830192505060018101905062000785565b5050509392505050565b600081519050620007d181620012fc565b92915050565b600082601f830112620007e957600080fd5b8151620007fb848260208601620006d6565b91505092915050565b600082601f8301126200081657600080fd5b8151620008288482602086016200074b565b91505092915050565b600081519050620008428162001316565b92915050565b6000806000806000806000806000806101408b8d0312156200086957600080fd5b6000620008798d828e0162000831565b9a505060206200088c8d828e0162000831565b99505060406200089f8d828e0162000831565b98505060608b015167ffffffffffffffff811115620008bd57600080fd5b620008cb8d828e01620007d7565b97505060808b015167ffffffffffffffff811115620008e957600080fd5b620008f78d828e0162000804565b96505060a06200090a8d828e0162000831565b95505060c06200091d8d828e01620007c0565b94505060e0620009308d828e01620007c0565b935050610100620009448d828e01620007c0565b925050610120620009588d828e01620007c0565b9150509295989b9194979a5092959850565b600062000979603c8362000d5d565b9150620009868262000efc565b604082019050919050565b6000620009a060308362000d5d565b9150620009ad8262000f4b565b604082019050919050565b6000620009c7603c8362000d5d565b9150620009d48262000f9a565b604082019050919050565b6000620009ee60378362000d5d565b9150620009fb8262000fe9565b604082019050919050565b600062000a1560398362000d5d565b915062000a228262001038565b604082019050919050565b600062000a3c60508362000d5d565b915062000a498262001087565b606082019050919050565b600062000a6360428362000d5d565b915062000a7082620010fc565b606082019050919050565b600062000a8a60368362000d5d565b915062000a978262001171565b604082019050919050565b600062000ab160328362000d5d565b915062000abe82620011c0565b604082019050919050565b600062000ad860318362000d5d565b915062000ae5826200120f565b604082019050919050565b600062000aff60328362000d5d565b915062000b0c826200125e565b604082019050919050565b600062000b2660318362000d5d565b915062000b3382620012ad565b604082019050919050565b6000602082019050818103600083015262000b59816200096a565b9050919050565b6000602082019050818103600083015262000b7b8162000991565b9050919050565b6000602082019050818103600083015262000b9d81620009b8565b9050919050565b6000602082019050818103600083015262000bbf81620009df565b9050919050565b6000602082019050818103600083015262000be18162000a06565b9050919050565b6000602082019050818103600083015262000c038162000a2d565b9050919050565b6000602082019050818103600083015262000c258162000a54565b9050919050565b6000602082019050818103600083015262000c478162000a7b565b9050919050565b6000602082019050818103600083015262000c698162000aa2565b9050919050565b6000602082019050818103600083015262000c8b8162000ac9565b9050919050565b6000602082019050818103600083015262000cad8162000af0565b9050919050565b6000602082019050818103600083015262000ccf8162000b17565b9050919050565b600062000ce262000cf5565b905062000cf0828262000e09565b919050565b6000604051905090565b600067ffffffffffffffff82111562000d1d5762000d1c62000ebc565b5b602082029050602081019050919050565b600067ffffffffffffffff82111562000d4c5762000d4b62000ebc565b5b602082029050602081019050919050565b600082825260208201905092915050565b600062000d7b8262000dff565b915062000d888362000dff565b9250827fffffffffffffffffffffffffffffffffffffffffffffffffffffffffffffffff0382111562000dc05762000dbf62000e8d565b5b828201905092915050565b600062000dd88262000ddf565b9050919050565b600073ffffffffffffffffffffffffffffffffffffffff82169050919050565b6000819050919050565b62000e148262000eeb565b810181811067ffffffffffffffff8211171562000e365762000e3562000ebc565b5b80604052505050565b600062000e4c8262000dff565b91507fffffffffffffffffffffffffffffffffffffffffffffffffffffffffffffffff82141562000e825762000e8162000e8d565b5b600182019050919050565b7f4e487b7100000000000000000000000000000000000000000000000000000000600052601160045260246000fd5b7f4e487b7100000000000000000000000000000000000000000000000000000000600052604160045260246000fd5b6000601f19601f8301169050919050565b7f50757263686173654578656375746f723a205f757364635f746f5f736172636f60008201527f5f72617465206d7573742062652067726561746572207468616e203000000000602082015250565b7f50757263686173654578656375746f723a205f736172636f5f64616f2063616e60008201527f6e6f742062652030206164647265737300000000000000000000000000000000602082015250565b7f50757263686173654578656375746f723a205f67656e6572616c5f746f6b656e60008201527f5f76657374696e672063616e6e6f742062652030206164647265737300000000602082015250565b7f50757263686173654578656375746f723a204e6f20616c6c6f6361746564205360008201527f6172636f20746f6b656e7320666f722061646472657373000000000000000000602082015250565b7f50757263686173654578656375746f723a206f666665725f657870697261746960008201527f6f6e206d7573742062652067726561746572207468616e203000000000000000602082015250565b7f50757263686173654578656375746f723a20416c6c6f636174696f6e735f746f60008201527f74616c20646f6573206e6f7420657175616c207468652073756d206f6620706160208201527f7373656420616c6c6f636174696f6e7300000000000000000000000000000000604082015250565b7f50757263686173654578656375746f723a207075726368617365727320616e6460008201527f20616c6c6f636174696f6e73206c656e67746873206d7573742062652065717560208201527f616c000000000000000000000000000000000000000000000000000000000000604082015250565b7f50757263686173654578656375746f723a205075726368617365722063616e6e60008201527f6f7420626520746865205a45524f206164647265737300000000000000000000602082015250565b7f50757263686173654578656375746f723a20656e645f64656c6179206d75737460008201527f2062652067726561746572207468616e20300000000000000000000000000000602082015250565b7f50757263686173654578656375746f723a20416c6c6f636174696f6e2068617360008201527f20616c7265616479206265656e20736574000000000000000000000000000000602082015250565b7f50757263686173654578656375746f723a205f736172636f5f746f6b656e206360008201527f616e6e6f74206265203020616464726573730000000000000000000000000000602082015250565b7f50757263686173654578656375746f723a205f757364635f746f6b656e20636160008201527f6e6e6f7420626520302061646472657373000000000000000000000000000000602082015250565b620013078162000dcb565b81146200131357600080fd5b50565b620013218162000dff565b81146200132d57600080fd5b50565b611a1a80620013406000396000f3fe608060405234801561001057600080fd5b506004361061010b5760003560e01c8063b3ec0df0116100a2578063d13bc41311610071578063d13bc41314610274578063dd8537d714610292578063ec1d1e8a1461029c578063f3fe77ec146102ba578063fa569274146102eb5761010b565b8063b3ec0df014610212578063be9a655514610230578063cb5b59951461023a578063d121047c146102585761010b565b8063826e7796116100de578063826e779614610188578063953834f8146101b85780639662dc59146101d6578063a6ec9d12146101f45761010b565b80630e8391981461011057806335a18d301461012e5780633919c7561461014c5780637342ec0c1461016a575b600080fd5b610118610309565b604051610125919061129a565b60405180910390f35b610136610316565b604051610143919061129a565b60405180910390f35b610154610323565b60405161016191906111da565b60405180910390f35b610172610349565b60405161017f9190611432565b60405180910390f35b6101a2600480360381019061019d9190610f44565b61034f565b6040516101af9190611432565b60405180910390f35b6101c0610367565b6040516101cd9190611432565b60405180910390f35b6101de61036d565b6040516101eb9190611432565b60405180910390f35b6101fc610373565b60405161020991906111da565b60405180910390f35b61021a610399565b6040516102279190611432565b60405180910390f35b61023861039f565b005b6102426103a9565b60405161024f9190611432565b60405180910390f35b610272600480360381019061026d9190610f44565b6103af565b005b61027c6103bb565b6040516102899190611432565b60405180910390f35b61029a6103c1565b005b6102a46105ea565b6040516102b191906112b5565b60405180910390f35b6102d460048036038101906102cf9190610f44565b610610565b6040516102e292919061144d565b60405180910390f35b6102f3610625565b60405161030091906112b5565b60405180910390f35b6000806008541415905090565b6000600954421015905090565b600360009054906101000a900473ffffffffffffffffffffffffffffffffffffffff1681565b60045481565b60066020528060005260406000206000915090505481565b60085481565b60075481565b600260009054906101000a900473ffffffffffffffffffffffffffffffffffffffff1681565b60095481565b6103a7610649565b565b60055481565b6103b8816107d6565b50565b600a5481565b6103c9610309565b610408576040517f08c379a00000000000000000000000000000000000000000000000000000000081526004016103ff90611372565b60405180910390fd5b610410610316565b61044f576040517f08c379a0000000000000000000000000000000000000000000000000000000008152600401610446906112f2565b60405180910390fd5b6000600160009054906101000a900473ffffffffffffffffffffffffffffffffffffffff1673ffffffffffffffffffffffffffffffffffffffff166370a08231306040518263ffffffff1660e01b81526004016104ac91906111da565b60206040518083038186803b1580156104c457600080fd5b505afa1580156104d8573d6000803e3d6000fd5b505050506040513d601f19601f820116820180604052508101906104fc9190610f96565b905060008111610541576040517f08c379a000000000000000000000000000000000000000000000000000000000815260040161053890611392565b60405180910390fd5b6105b0600360009054906101000a900473ffffffffffffffffffffffffffffffffffffffff1682600160009054906101000a900473ffffffffffffffffffffffffffffffffffffffff1673ffffffffffffffffffffffffffffffffffffffff16610b139092919063ffffffff16565b7fbe842a2fe0dcb4d753f6d8de0884c9fe5e49f6c1e9d4c1b61d2a0c8fe1650631816040516105df9190611432565b60405180910390a150565b600160009054906101000a900473ffffffffffffffffffffffffffffffffffffffff1681565b60008061061c83610b99565b91509150915091565b60008054906101000a900473ffffffffffffffffffffffffffffffffffffffff1681565b60006008541461068e576040517f08c379a000000000000000000000000000000000000000000000000000000000815260040161068590611312565b60405180910390fd5b600554600160009054906101000a900473ffffffffffffffffffffffffffffffffffffffff1673ffffffffffffffffffffffffffffffffffffffff166370a08231306040518263ffffffff1660e01b81526004016106ec91906111da565b60206040518083038186803b15801561070457600080fd5b505afa158015610718573d6000803e3d6000fd5b505050506040513d601f19601f8201168201806040525081019061073c9190610f96565b1461077c576040517f08c379a0000000000000000000000000000000000000000000000000000000008152600401610773906113b2565b60405180910390fd5b426008819055506007544261079191906114a8565b6009819055507f20d65dc806f1ba6ab51537d616d92bf870e9c4db31557a7d07566363218025826008546009546040516107cc92919061144d565b60405180910390a1565b600060085414156107ea576107e9610649565b5b600954421061082e576040517f08c379a000000000000000000000000000000000000000000000000000000000815260040161082590611352565b60405180910390fd5b60008061083a83610b99565b9150915060008211610881576040517f08c379a000000000000000000000000000000000000000000000000000000000815260040161087890611412565b60405180910390fd5b6000600660008573ffffffffffffffffffffffffffffffffffffffff1673ffffffffffffffffffffffffffffffffffffffff1681526020019081526020016000208190555061093533600360009054906101000a900473ffffffffffffffffffffffffffffffffffffffff168360008054906101000a900473ffffffffffffffffffffffffffffffffffffffff1673ffffffffffffffffffffffffffffffffffffffff16610c0f909392919063ffffffff16565b600160009054906101000a900473ffffffffffffffffffffffffffffffffffffffff1673ffffffffffffffffffffffffffffffffffffffff1663095ea7b3600260009054906101000a900473ffffffffffffffffffffffffffffffffffffffff16846040518363ffffffff1660e01b81526004016109b492919061122c565b602060405180830381600087803b1580156109ce57600080fd5b505af11580156109e2573d6000803e3d6000fd5b505050506040513d601f19601f82011682018060405250810190610a069190610f6d565b50600260009054906101000a900473ffffffffffffffffffffffffffffffffffffffff1673ffffffffffffffffffffffffffffffffffffffff1663e9824d4f8484600a54600160009054906101000a900473ffffffffffffffffffffffffffffffffffffffff166040518563ffffffff1660e01b8152600401610a8c9493929190611255565b600060405180830381600087803b158015610aa657600080fd5b505af1158015610aba573d6000803e3d6000fd5b505050508273ffffffffffffffffffffffffffffffffffffffff167f262152355731b9a323567e266064557ec9a5ed03bd75b80631a39eeb22e8503e8383604051610b0692919061144d565b60405180910390a2505050565b610b948363a9059cbb60e01b8484604051602401610b3292919061122c565b604051602081830303815290604052907bffffffffffffffffffffffffffffffffffffffffffffffffffffffff19166020820180517bffffffffffffffffffffffffffffffffffffffffffffffffffffffff8381831617835250505050610c98565b505050565b6000806000600660008573ffffffffffffffffffffffffffffffffffffffff1673ffffffffffffffffffffffffffffffffffffffff168152602001908152602001600020549050600064e8d4a5100060045483610bf691906114fe565b610c0091906114fe565b90508181935093505050915091565b610c92846323b872dd60e01b858585604051602401610c30939291906111f5565b604051602081830303815290604052907bffffffffffffffffffffffffffffffffffffffffffffffffffffffff19166020820180517bffffffffffffffffffffffffffffffffffffffffffffffffffffffff8381831617835250505050610c98565b50505050565b6000610cfa826040518060400160405280602081526020017f5361666545524332303a206c6f772d6c6576656c2063616c6c206661696c65648152508573ffffffffffffffffffffffffffffffffffffffff16610d5f9092919063ffffffff16565b9050600081511115610d5a5780806020019051810190610d1a9190610f6d565b610d59576040517f08c379a0000000000000000000000000000000000000000000000000000000008152600401610d50906113f2565b60405180910390fd5b5b505050565b6060610d6e8484600085610d77565b90509392505050565b606082471015610dbc576040517f08c379a0000000000000000000000000000000000000000000000000000000008152600401610db390611332565b60405180910390fd5b610dc585610e8b565b610e04576040517f08c379a0000000000000000000000000000000000000000000000000000000008152600401610dfb906113d2565b60405180910390fd5b6000808673ffffffffffffffffffffffffffffffffffffffff168587604051610e2d91906111c3565b60006040518083038185875af1925050503d8060008114610e6a576040519150601f19603f3d011682016040523d82523d6000602084013e610e6f565b606091505b5091509150610e7f828286610e9e565b92505050949350505050565b600080823b905060008111915050919050565b60608315610eae57829050610efe565b600083511115610ec15782518084602001fd5b816040517f08c379a0000000000000000000000000000000000000000000000000000000008152600401610ef591906112d0565b60405180910390fd5b9392505050565b600081359050610f148161199f565b92915050565b600081519050610f29816119b6565b92915050565b600081519050610f3e816119cd565b92915050565b600060208284031215610f5657600080fd5b6000610f6484828501610f05565b91505092915050565b600060208284031215610f7f57600080fd5b6000610f8d84828501610f1a565b91505092915050565b600060208284031215610fa857600080fd5b6000610fb684828501610f2f565b91505092915050565b610fc88161152f565b82525050565b610fd781611541565b82525050565b6000610fe882611476565b610ff2818561148c565b935061100281856020860161159b565b80840191505092915050565b61101781611577565b82525050565b600061102882611481565b6110328185611497565b935061104281856020860161159b565b61104b8161162c565b840191505092915050565b6000611063603483611497565b915061106e8261163d565b604082019050919050565b6000611086602b83611497565b91506110918261168c565b604082019050919050565b60006110a9602683611497565b91506110b4826116db565b604082019050919050565b60006110cc604683611497565b91506110d78261172a565b606082019050919050565b60006110ef603483611497565b91506110fa8261179f565b604082019050919050565b6000611112603683611497565b915061111d826117ee565b604082019050919050565b6000611135604483611497565b91506111408261183d565b606082019050919050565b6000611158601d83611497565b9150611163826118b2565b602082019050919050565b600061117b602a83611497565b9150611186826118db565b604082019050919050565b600061119e604283611497565b91506111a98261192a565b606082019050919050565b6111bd8161156d565b82525050565b60006111cf8284610fdd565b915081905092915050565b60006020820190506111ef6000830184610fbf565b92915050565b600060608201905061120a6000830186610fbf565b6112176020830185610fbf565b61122460408301846111b4565b949350505050565b60006040820190506112416000830185610fbf565b61124e60208301846111b4565b9392505050565b600060808201905061126a6000830187610fbf565b61127760208301866111b4565b61128460408301856111b4565b611291606083018461100e565b95945050505050565b60006020820190506112af6000830184610fce565b92915050565b60006020820190506112ca600083018461100e565b92915050565b600060208201905081810360008301526112ea818461101d565b905092915050565b6000602082019050818103600083015261130b81611056565b9050919050565b6000602082019050818103600083015261132b81611079565b9050919050565b6000602082019050818103600083015261134b8161109c565b9050919050565b6000602082019050818103600083015261136b816110bf565b9050919050565b6000602082019050818103600083015261138b816110e2565b9050919050565b600060208201905081810360008301526113ab81611105565b9050919050565b600060208201905081810360008301526113cb81611128565b9050919050565b600060208201905081810360008301526113eb8161114b565b9050919050565b6000602082019050818103600083015261140b8161116e565b9050919050565b6000602082019050818103600083015261142b81611191565b9050919050565b600060208201905061144760008301846111b4565b92915050565b600060408201905061146260008301856111b4565b61146f60208301846111b4565b9392505050565b600081519050919050565b600081519050919050565b600081905092915050565b600082825260208201905092915050565b60006114b38261156d565b91506114be8361156d565b9250827fffffffffffffffffffffffffffffffffffffffffffffffffffffffffffffffff038211156114f3576114f26115ce565b5b828201905092915050565b60006115098261156d565b91506115148361156d565b925082611524576115236115fd565b5b828204905092915050565b600061153a8261154d565b9050919050565b60008115159050919050565b600073ffffffffffffffffffffffffffffffffffffffff82169050919050565b6000819050919050565b600061158282611589565b9050919050565b60006115948261154d565b9050919050565b60005b838110156115b957808201518184015260208101905061159e565b838111156115c8576000848401525b50505050565b7f4e487b7100000000000000000000000000000000000000000000000000000000600052601160045260246000fd5b7f4e487b7100000000000000000000000000000000000000000000000000000000600052601260045260246000fd5b6000601f19601f8301169050919050565b7f50757263686173654578656375746f723a205075726368617365206f6666657260008201527f20686173206e6f74207965742065787069726564000000000000000000000000602082015250565b7f50757263686173654578656375746f723a204f666665722068617320616c726560008201527f6164792073746172746564000000000000000000000000000000000000000000602082015250565b7f416464726573733a20696e73756666696369656e742062616c616e636520666f60008201527f722063616c6c0000000000000000000000000000000000000000000000000000602082015250565b7f50757263686173654578656375746f723a205075726368617365732063616e6e60008201527f6f74206265206d61646520616674657220746865206f6666657220686173206560208201527f7870697265640000000000000000000000000000000000000000000000000000604082015250565b7f50757263686173654578656375746f723a205075726368617365206f6666657260008201527f20686173206e6f74207965742073746172746564000000000000000000000000602082015250565b7f50757263686173654578656375746f723a20546865726520617265206e6f205360008201527f6172636f20746f6b656e7320746f207265636f76657200000000000000000000602082015250565b7f50757263686173654578656375746f723a20496e73756666696369656e74205360008201527f6172636f20636f6e74726163742062616c616e636520746f207374617274206f60208201527f6666657200000000000000000000000000000000000000000000000000000000604082015250565b7f416464726573733a2063616c6c20746f206e6f6e2d636f6e7472616374000000600082015250565b7f5361666545524332303a204552433230206f7065726174696f6e20646964206e60008201527f6f74207375636365656400000000000000000000000000000000000000000000602082015250565b7f50757263686173654578656375746f723a205f736172636f5f7265636569766560008201527f7220646f6573206e6f742068617665206120536172636f20616c6c6f6361746960208201527f6f6e000000000000000000000000000000000000000000000000000000000000604082015250565b6119a88161152f565b81146119b357600080fd5b50565b6119bf81611541565b81146119ca57600080fd5b50565b6119d68161156d565b81146119e157600080fd5b5056fea2646970667358221220ddc0f4eed97be570cea73d950cddff3873cd250c3166a03d7f5e77ee66bc8e8c64736f6c63430008040033",
  "devdoc": {
    "details": "allow a whitelisted set of addresses to purchase SARCO tokens, for stablecoins (USDC), at a set rate",
    "kind": "dev",
    "methods": {
      "constructor": {
        "details": "inits/sets sarco purchase enviorment",
        "params": {
          "_general_token_vesting": "GeneralTokenVesting contract address",
          "_offer_expiration_delay": "Delay from the contract deployment to offer expiration, in seconds",
          "_sarco_allocations": "List of SARCO token allocations, should include decimals 10 ** 18",
          "_sarco_allocations_total": "Checksum of SARCO token allocations, should include decimals 10 ** 18",
          "_sarco_dao": "Sarco DAO contract address",
          "_sarco_purchasers": "List of valid SARCO purchasers",
          "_sarco_token": "Sarco token address",
          "_usdc_to_sarco_rate": "How much SARCO one gets for one USDC",
          "_usdc_token": "USDC token address",
          "_vesting_end_delay": "Delay from the purchase moment to the vesting end moment, in seconds"
        }
      },
      "recover_unsold_tokens()": {
        "details": "If unsold_sarco_amount > 0 after the offer expired, sarco tokens are send back to Sarco Dao."
      }
    },
    "title": "PurchaseExecutor",
    "version": 1
  },
  "userdoc": {
    "kind": "user",
    "methods": {},
    "version": 1
  },
  "storageLayout": {
    "storage": [
      {
        "astId": 609,
        "contract": "contracts/PurchaseExecutor.sol:PurchaseExecutor",
        "label": "USDC_TOKEN",
        "offset": 0,
        "slot": "0",
        "type": "t_contract(IERC20)77"
      },
      {
        "astId": 612,
        "contract": "contracts/PurchaseExecutor.sol:PurchaseExecutor",
        "label": "SARCO_TOKEN",
        "offset": 0,
        "slot": "1",
        "type": "t_contract(IERC20)77"
      },
      {
        "astId": 614,
        "contract": "contracts/PurchaseExecutor.sol:PurchaseExecutor",
        "label": "GENERAL_TOKEN_VESTING",
        "offset": 0,
        "slot": "2",
        "type": "t_address"
      },
      {
        "astId": 616,
        "contract": "contracts/PurchaseExecutor.sol:PurchaseExecutor",
        "label": "SARCO_DAO",
        "offset": 0,
        "slot": "3",
        "type": "t_address"
      },
      {
        "astId": 618,
        "contract": "contracts/PurchaseExecutor.sol:PurchaseExecutor",
        "label": "usdc_to_sarco_rate",
        "offset": 0,
        "slot": "4",
        "type": "t_uint256"
      },
      {
        "astId": 620,
        "contract": "contracts/PurchaseExecutor.sol:PurchaseExecutor",
        "label": "sarco_allocations_total",
        "offset": 0,
        "slot": "5",
        "type": "t_uint256"
      },
      {
        "astId": 624,
        "contract": "contracts/PurchaseExecutor.sol:PurchaseExecutor",
        "label": "sarco_allocations",
        "offset": 0,
        "slot": "6",
        "type": "t_mapping(t_address,t_uint256)"
      },
      {
        "astId": 626,
        "contract": "contracts/PurchaseExecutor.sol:PurchaseExecutor",
        "label": "offer_expiration_delay",
        "offset": 0,
        "slot": "7",
        "type": "t_uint256"
      },
      {
        "astId": 628,
        "contract": "contracts/PurchaseExecutor.sol:PurchaseExecutor",
        "label": "offer_started_at",
        "offset": 0,
        "slot": "8",
        "type": "t_uint256"
      },
      {
        "astId": 630,
        "contract": "contracts/PurchaseExecutor.sol:PurchaseExecutor",
        "label": "offer_expires_at",
        "offset": 0,
        "slot": "9",
        "type": "t_uint256"
      },
      {
        "astId": 632,
        "contract": "contracts/PurchaseExecutor.sol:PurchaseExecutor",
        "label": "vesting_end_delay",
        "offset": 0,
        "slot": "10",
        "type": "t_uint256"
      }
    ],
    "types": {
      "t_address": {
        "encoding": "inplace",
        "label": "address",
        "numberOfBytes": "20"
      },
      "t_contract(IERC20)77": {
        "encoding": "inplace",
        "label": "contract IERC20",
        "numberOfBytes": "20"
      },
      "t_mapping(t_address,t_uint256)": {
        "encoding": "mapping",
        "key": "t_address",
        "label": "mapping(address => uint256)",
        "numberOfBytes": "32",
        "value": "t_uint256"
      },
      "t_uint256": {
        "encoding": "inplace",
        "label": "uint256",
        "numberOfBytes": "32"
      }
    }
  }
}