{
  "address": "0xBE9abbC5E86C0F2774Dc0D4d2d6d682dE90587f0",
  "abi": [
    {
      "inputs": [
        {
          "internalType": "uint256",
          "name": "_usdc_to_sarco_rate",
          "type": "uint256"
        },
        {
          "internalType": "uint256",
          "name": "_vesting_end_delay",
          "type": "uint256"
        },
        {
          "internalType": "uint256",
          "name": "_offer_expiration_delay",
          "type": "uint256"
        },
        {
          "internalType": "address[]",
          "name": "_sarco_purchasers",
          "type": "address[]"
        },
        {
          "internalType": "uint256[]",
          "name": "_sarco_allocations",
          "type": "uint256[]"
        },
        {
          "internalType": "uint256",
          "name": "_sarco_allocations_total",
          "type": "uint256"
        },
        {
          "internalType": "address",
          "name": "_usdc_token",
          "type": "address"
        },
        {
          "internalType": "address",
          "name": "_sarco_token",
          "type": "address"
        },
        {
          "internalType": "address",
          "name": "_general_token_vesting",
          "type": "address"
        },
        {
          "internalType": "address",
          "name": "_sarco_dao",
          "type": "address"
        }
      ],
      "stateMutability": "nonpayable",
      "type": "constructor"
    },
    {
      "anonymous": false,
      "inputs": [
        {
          "indexed": false,
          "internalType": "uint256",
          "name": "started_at",
          "type": "uint256"
        },
        {
          "indexed": false,
          "internalType": "uint256",
          "name": "expires_at",
          "type": "uint256"
        }
      ],
      "name": "OfferStarted",
      "type": "event"
    },
    {
      "anonymous": false,
      "inputs": [
        {
          "indexed": true,
          "internalType": "address",
          "name": "previousOwner",
          "type": "address"
        },
        {
          "indexed": true,
          "internalType": "address",
          "name": "newOwner",
          "type": "address"
        }
      ],
      "name": "OwnershipTransferred",
      "type": "event"
    },
    {
      "anonymous": false,
      "inputs": [
        {
          "indexed": true,
          "internalType": "address",
          "name": "sarco_receiver",
          "type": "address"
        },
        {
          "indexed": false,
          "internalType": "uint256",
          "name": "sarco_allocation",
          "type": "uint256"
        },
        {
          "indexed": false,
          "internalType": "uint256",
          "name": "usdc_cost",
          "type": "uint256"
        }
      ],
      "name": "PurchaseExecuted",
      "type": "event"
    },
    {
      "anonymous": false,
      "inputs": [
        {
          "indexed": false,
          "internalType": "uint256",
          "name": "amount",
          "type": "uint256"
        }
      ],
      "name": "TokensRecovered",
      "type": "event"
    },
    {
      "inputs": [],
      "name": "GENERAL_TOKEN_VESTING",
      "outputs": [
        {
          "internalType": "address",
          "name": "",
          "type": "address"
        }
      ],
      "stateMutability": "view",
      "type": "function"
    },
    {
      "inputs": [],
      "name": "SARCO_DAO",
      "outputs": [
        {
          "internalType": "address",
          "name": "",
          "type": "address"
        }
      ],
      "stateMutability": "view",
      "type": "function"
    },
    {
      "inputs": [],
      "name": "SARCO_TOKEN",
      "outputs": [
        {
          "internalType": "contract IERC20",
          "name": "",
          "type": "address"
        }
      ],
      "stateMutability": "view",
      "type": "function"
    },
    {
      "inputs": [],
      "name": "USDC_TOKEN",
      "outputs": [
        {
          "internalType": "contract IERC20",
          "name": "",
          "type": "address"
        }
      ],
      "stateMutability": "view",
      "type": "function"
    },
    {
      "inputs": [
        {
          "internalType": "address",
          "name": "sarco_receiver",
          "type": "address"
        }
      ],
      "name": "execute_purchase",
      "outputs": [],
      "stateMutability": "nonpayable",
      "type": "function"
    },
    {
      "inputs": [
        {
          "internalType": "address",
          "name": "sarco_receiver",
          "type": "address"
        }
      ],
      "name": "get_allocation",
      "outputs": [
        {
          "internalType": "uint256",
          "name": "",
          "type": "uint256"
        },
        {
          "internalType": "uint256",
          "name": "",
          "type": "uint256"
        }
      ],
      "stateMutability": "view",
      "type": "function"
    },
    {
      "inputs": [],
      "name": "offer_expiration_delay",
      "outputs": [
        {
          "internalType": "uint256",
          "name": "",
          "type": "uint256"
        }
      ],
      "stateMutability": "view",
      "type": "function"
    },
    {
      "inputs": [],
      "name": "offer_expired",
      "outputs": [
        {
          "internalType": "bool",
          "name": "",
          "type": "bool"
        }
      ],
      "stateMutability": "view",
      "type": "function"
    },
    {
      "inputs": [],
      "name": "offer_expires_at",
      "outputs": [
        {
          "internalType": "uint256",
          "name": "",
          "type": "uint256"
        }
      ],
      "stateMutability": "view",
      "type": "function"
    },
    {
      "inputs": [],
      "name": "offer_started",
      "outputs": [
        {
          "internalType": "bool",
          "name": "",
          "type": "bool"
        }
      ],
      "stateMutability": "view",
      "type": "function"
    },
    {
      "inputs": [],
      "name": "offer_started_at",
      "outputs": [
        {
          "internalType": "uint256",
          "name": "",
          "type": "uint256"
        }
      ],
      "stateMutability": "view",
      "type": "function"
    },
    {
      "inputs": [],
      "name": "owner",
      "outputs": [
        {
          "internalType": "address",
          "name": "",
          "type": "address"
        }
      ],
      "stateMutability": "view",
      "type": "function"
    },
    {
      "inputs": [
        {
          "internalType": "address",
          "name": "tokenAddress",
          "type": "address"
        },
        {
          "internalType": "uint256",
          "name": "tokenAmount",
          "type": "uint256"
        },
        {
          "internalType": "address",
          "name": "recipientAddress",
          "type": "address"
        }
      ],
      "name": "recover_erc20",
      "outputs": [],
      "stateMutability": "nonpayable",
      "type": "function"
    },
    {
      "inputs": [],
      "name": "recover_unsold_tokens",
      "outputs": [],
      "stateMutability": "nonpayable",
      "type": "function"
    },
    {
      "inputs": [],
      "name": "renounceOwnership",
      "outputs": [],
      "stateMutability": "nonpayable",
      "type": "function"
    },
    {
      "inputs": [
        {
          "internalType": "address",
          "name": "",
          "type": "address"
        }
      ],
      "name": "sarco_allocations",
      "outputs": [
        {
          "internalType": "uint256",
          "name": "",
          "type": "uint256"
        }
      ],
      "stateMutability": "view",
      "type": "function"
    },
    {
      "inputs": [],
      "name": "sarco_allocations_total",
      "outputs": [
        {
          "internalType": "uint256",
          "name": "",
          "type": "uint256"
        }
      ],
      "stateMutability": "view",
      "type": "function"
    },
    {
      "inputs": [],
      "name": "sarco_to_usdc_decimal_fix",
      "outputs": [
        {
          "internalType": "uint256",
          "name": "",
          "type": "uint256"
        }
      ],
      "stateMutability": "view",
      "type": "function"
    },
    {
      "inputs": [],
      "name": "start",
      "outputs": [],
      "stateMutability": "nonpayable",
      "type": "function"
    },
    {
      "inputs": [
        {
          "internalType": "address",
          "name": "newOwner",
          "type": "address"
        }
      ],
      "name": "transferOwnership",
      "outputs": [],
      "stateMutability": "nonpayable",
      "type": "function"
    },
    {
      "inputs": [],
      "name": "usdc_to_sarco_precision",
      "outputs": [
        {
          "internalType": "uint256",
          "name": "",
          "type": "uint256"
        }
      ],
      "stateMutability": "view",
      "type": "function"
    },
    {
      "inputs": [],
      "name": "usdc_to_sarco_rate",
      "outputs": [
        {
          "internalType": "uint256",
          "name": "",
          "type": "uint256"
        }
      ],
      "stateMutability": "view",
      "type": "function"
    },
    {
      "inputs": [],
      "name": "vesting_end_delay",
      "outputs": [
        {
          "internalType": "uint256",
          "name": "",
          "type": "uint256"
        }
      ],
      "stateMutability": "view",
      "type": "function"
    }
  ],
  "transactionHash": "0xdf370225c9079ad791c2299549b77b2a3e9bc631d62b39784434e65d1d6ebd2d",
  "args": [
    "5000000000000000000",
    604800,
    259200,
    [
      "0xce823c1302B9Df4E9D0d114b3d62Fa62D09e05ec",
      "0x3385d34E7e8Ab15f8296124D67c11b97B34428C9",
      "0x1F24530e32103e6211756bDf7524762E8d777935"
    ],
    [
      "50000000000000000000",
      "25000000000000000000",
      "25000000000000000000"
    ],
    "100000000000000000000",
    "0xa0b86991c6218b36c1d19d4a2e9eb0ce3606eb48",
    "0x7697b462a7c4ff5f8b55bdbc2f4076c2af9cf51a",
    "0x8727c592f28f10b42eb0914a7f6a5885823794c0",
    "0x3299f6a52983ba00ffaa0d8c2d5075ca3f3b7991"
  ],
  "solcInputHash": "3e5638f869dd65682cc809088479a7a8",
  "bytecode": "0x6080604052670de0b6b3a764000060055564e8d4a510006006553480156200002657600080fd5b50604051620043d6380380620043d683398181016040528101906200004c919062000be4565b60006200005e620009f060201b60201c565b9050806000806101000a81548173ffffffffffffffffffffffffffffffffffffffff021916908373ffffffffffffffffffffffffffffffffffffffff1602179055508073ffffffffffffffffffffffffffffffffffffffff16600073ffffffffffffffffffffffffffffffffffffffff167f8be0079c531659141344cd1fd0a4f28419497f9722a3daafe3b4186f6b6457e060405160405180910390a35060008a1162000142576040517f08c379a0000000000000000000000000000000000000000000000000000000008152600401620001399062000f29565b60405180910390fd5b6000891162000188576040517f08c379a00000000000000000000000000000000000000000000000000000000081526004016200017f9062001039565b60405180910390fd5b60008811620001ce576040517f08c379a0000000000000000000000000000000000000000000000000000000008152600401620001c59062000fb1565b60405180910390fd5b855187511462000215576040517f08c379a00000000000000000000000000000000000000000000000000000000081526004016200020c9062000ff5565b60405180910390fd5b600073ffffffffffffffffffffffffffffffffffffffff168473ffffffffffffffffffffffffffffffffffffffff16141562000288576040517f08c379a00000000000000000000000000000000000000000000000000000000081526004016200027f906200109f565b60405180910390fd5b600073ffffffffffffffffffffffffffffffffffffffff168373ffffffffffffffffffffffffffffffffffffffff161415620002fb576040517f08c379a0000000000000000000000000000000000000000000000000000000008152600401620002f2906200107d565b60405180910390fd5b600073ffffffffffffffffffffffffffffffffffffffff168273ffffffffffffffffffffffffffffffffffffffff1614156200036e576040517f08c379a0000000000000000000000000000000000000000000000000000000008152600401620003659062000f6d565b60405180910390fd5b600073ffffffffffffffffffffffffffffffffffffffff168173ffffffffffffffffffffffffffffffffffffffff161415620003e1576040517f08c379a0000000000000000000000000000000000000000000000000000000008152600401620003d89062000f4b565b60405180910390fd5b8960078190555088600d8190555087600a819055508460088190555083600160006101000a81548173ffffffffffffffffffffffffffffffffffffffff021916908373ffffffffffffffffffffffffffffffffffffffff16021790555082600260006101000a81548173ffffffffffffffffffffffffffffffffffffffff021916908373ffffffffffffffffffffffffffffffffffffffff16021790555081600360006101000a81548173ffffffffffffffffffffffffffffffffffffffff021916908373ffffffffffffffffffffffffffffffffffffffff16021790555080600460006101000a81548173ffffffffffffffffffffffffffffffffffffffff021916908373ffffffffffffffffffffffffffffffffffffffff1602179055506000805b8851811015620007455760008982815181106200054b577f4e487b7100000000000000000000000000000000000000000000000000000000600052603260045260246000fd5b60200260200101519050600073ffffffffffffffffffffffffffffffffffffffff168173ffffffffffffffffffffffffffffffffffffffff161415620005c8576040517f08c379a0000000000000000000000000000000000000000000000000000000008152600401620005bf9062001017565b60405180910390fd5b6000600960008373ffffffffffffffffffffffffffffffffffffffff1673ffffffffffffffffffffffffffffffffffffffff16815260200190815260200160002054146200064d576040517f08c379a000000000000000000000000000000000000000000000000000000000815260040162000644906200105b565b60405180910390fd5b600089838151811062000689577f4e487b7100000000000000000000000000000000000000000000000000000000600052603260045260246000fd5b6020026020010151905060008111620006d9576040517f08c379a0000000000000000000000000000000000000000000000000000000008152600401620006d09062000f8f565b60405180910390fd5b80600960008473ffffffffffffffffffffffffffffffffffffffff1673ffffffffffffffffffffffffffffffffffffffff1681526020019081526020016000208190555080846200072b919062001159565b9350505080806200073c90620012cf565b91505062000505565b508581146200078b576040517f08c379a0000000000000000000000000000000000000000000000000000000008152600401620007829062000fd3565b60405180910390fd5b600160009054906101000a900473ffffffffffffffffffffffffffffffffffffffff1673ffffffffffffffffffffffffffffffffffffffff1663095ea7b383620007db89620009f860201b60201c565b6040518363ffffffff1660e01b8152600401620007fa92919062000efc565b602060405180830381600087803b1580156200081557600080fd5b505af11580156200082a573d6000803e3d6000fd5b505050506040513d601f19601f8201168201806040525081019062000850919062000bb8565b50600260009054906101000a900473ffffffffffffffffffffffffffffffffffffffff1673ffffffffffffffffffffffffffffffffffffffff1663095ea7b3600360009054906101000a900473ffffffffffffffffffffffffffffffffffffffff16886040518363ffffffff1660e01b8152600401620008d292919062000efc565b602060405180830381600087803b158015620008ed57600080fd5b505af115801562000902573d6000803e3d6000fd5b505050506040513d601f19601f8201168201806040525081019062000928919062000bb8565b50600260009054906101000a900473ffffffffffffffffffffffffffffffffffffffff1673ffffffffffffffffffffffffffffffffffffffff1663095ea7b383886040518363ffffffff1660e01b81526004016200098892919062000efc565b602060405180830381600087803b158015620009a357600080fd5b505af1158015620009b8573d6000803e3d6000fd5b505050506040513d601f19601f82011682018060405250810190620009de919062000bb8565b50505050505050505050505062001809565b600033905090565b60006006546007546005548462000a109190620011ee565b62000a1c9190620011b6565b62000a289190620011b6565b9050919050565b600062000a4662000a4084620010ea565b620010c1565b9050808382526020820190508285602086028201111562000a6657600080fd5b60005b8581101562000a9a578162000a7f888262000b19565b84526020840193506020830192505060018101905062000a69565b5050509392505050565b600062000abb62000ab58462001119565b620010c1565b9050808382526020820190508285602086028201111562000adb57600080fd5b60005b8581101562000b0f578162000af4888262000ba1565b84526020840193506020830192505060018101905062000ade565b5050509392505050565b60008151905062000b2a81620017bb565b92915050565b600082601f83011262000b4257600080fd5b815162000b5484826020860162000a2f565b91505092915050565b600082601f83011262000b6f57600080fd5b815162000b8184826020860162000aa4565b91505092915050565b60008151905062000b9b81620017d5565b92915050565b60008151905062000bb281620017ef565b92915050565b60006020828403121562000bcb57600080fd5b600062000bdb8482850162000b8a565b91505092915050565b6000806000806000806000806000806101408b8d03121562000c0557600080fd5b600062000c158d828e0162000ba1565b9a5050602062000c288d828e0162000ba1565b995050604062000c3b8d828e0162000ba1565b98505060608b015167ffffffffffffffff81111562000c5957600080fd5b62000c678d828e0162000b30565b97505060808b015167ffffffffffffffff81111562000c8557600080fd5b62000c938d828e0162000b5d565b96505060a062000ca68d828e0162000ba1565b95505060c062000cb98d828e0162000b19565b94505060e062000ccc8d828e0162000b19565b93505061010062000ce08d828e0162000b19565b92505061012062000cf48d828e0162000b19565b9150509295989b9194979a5092959850565b62000d11816200124f565b82525050565b600062000d26603c8362001148565b915062000d3382620013bb565b604082019050919050565b600062000d4d60308362001148565b915062000d5a826200140a565b604082019050919050565b600062000d74603c8362001148565b915062000d818262001459565b604082019050919050565b600062000d9b60378362001148565b915062000da882620014a8565b604082019050919050565b600062000dc260398362001148565b915062000dcf82620014f7565b604082019050919050565b600062000de960508362001148565b915062000df68262001546565b606082019050919050565b600062000e1060428362001148565b915062000e1d82620015bb565b606082019050919050565b600062000e3760368362001148565b915062000e448262001630565b604082019050919050565b600062000e5e60328362001148565b915062000e6b826200167f565b604082019050919050565b600062000e8560318362001148565b915062000e9282620016ce565b604082019050919050565b600062000eac60328362001148565b915062000eb9826200171d565b604082019050919050565b600062000ed360318362001148565b915062000ee0826200176c565b604082019050919050565b62000ef6816200128f565b82525050565b600060408201905062000f13600083018562000d06565b62000f22602083018462000eeb565b9392505050565b6000602082019050818103600083015262000f448162000d17565b9050919050565b6000602082019050818103600083015262000f668162000d3e565b9050919050565b6000602082019050818103600083015262000f888162000d65565b9050919050565b6000602082019050818103600083015262000faa8162000d8c565b9050919050565b6000602082019050818103600083015262000fcc8162000db3565b9050919050565b6000602082019050818103600083015262000fee8162000dda565b9050919050565b60006020820190508181036000830152620010108162000e01565b9050919050565b60006020820190508181036000830152620010328162000e28565b9050919050565b60006020820190508181036000830152620010548162000e4f565b9050919050565b60006020820190508181036000830152620010768162000e76565b9050919050565b60006020820190508181036000830152620010988162000e9d565b9050919050565b60006020820190508181036000830152620010ba8162000ec4565b9050919050565b6000620010cd620010e0565b9050620010db828262001299565b919050565b6000604051905090565b600067ffffffffffffffff8211156200110857620011076200137b565b5b602082029050602081019050919050565b600067ffffffffffffffff8211156200113757620011366200137b565b5b602082029050602081019050919050565b600082825260208201905092915050565b600062001166826200128f565b915062001173836200128f565b9250827fffffffffffffffffffffffffffffffffffffffffffffffffffffffffffffffff03821115620011ab57620011aa6200131d565b5b828201905092915050565b6000620011c3826200128f565b9150620011d0836200128f565b925082620011e357620011e26200134c565b5b828204905092915050565b6000620011fb826200128f565b915062001208836200128f565b9250817fffffffffffffffffffffffffffffffffffffffffffffffffffffffffffffffff04831182151516156200124457620012436200131d565b5b828202905092915050565b60006200125c826200126f565b9050919050565b60008115159050919050565b600073ffffffffffffffffffffffffffffffffffffffff82169050919050565b6000819050919050565b620012a482620013aa565b810181811067ffffffffffffffff82111715620012c657620012c56200137b565b5b80604052505050565b6000620012dc826200128f565b91507fffffffffffffffffffffffffffffffffffffffffffffffffffffffffffffffff8214156200131257620013116200131d565b5b600182019050919050565b7f4e487b7100000000000000000000000000000000000000000000000000000000600052601160045260246000fd5b7f4e487b7100000000000000000000000000000000000000000000000000000000600052601260045260246000fd5b7f4e487b7100000000000000000000000000000000000000000000000000000000600052604160045260246000fd5b6000601f19601f8301169050919050565b7f50757263686173654578656375746f723a205f757364635f746f5f736172636f60008201527f5f72617465206d7573742062652067726561746572207468616e203000000000602082015250565b7f50757263686173654578656375746f723a205f736172636f5f64616f2063616e60008201527f6e6f742062652030206164647265737300000000000000000000000000000000602082015250565b7f50757263686173654578656375746f723a205f67656e6572616c5f746f6b656e60008201527f5f76657374696e672063616e6e6f742062652030206164647265737300000000602082015250565b7f50757263686173654578656375746f723a204e6f20616c6c6f6361746564205360008201527f6172636f20746f6b656e7320666f722061646472657373000000000000000000602082015250565b7f50757263686173654578656375746f723a206f666665725f657870697261746960008201527f6f6e206d7573742062652067726561746572207468616e203000000000000000602082015250565b7f50757263686173654578656375746f723a20416c6c6f636174696f6e735f746f60008201527f74616c20646f6573206e6f7420657175616c207468652073756d206f6620706160208201527f7373656420616c6c6f636174696f6e7300000000000000000000000000000000604082015250565b7f50757263686173654578656375746f723a207075726368617365727320616e6460008201527f20616c6c6f636174696f6e73206c656e67746873206d7573742062652065717560208201527f616c000000000000000000000000000000000000000000000000000000000000604082015250565b7f50757263686173654578656375746f723a205075726368617365722063616e6e60008201527f6f7420626520746865205a45524f206164647265737300000000000000000000602082015250565b7f50757263686173654578656375746f723a20656e645f64656c6179206d75737460008201527f2062652067726561746572207468616e20300000000000000000000000000000602082015250565b7f50757263686173654578656375746f723a20416c6c6f636174696f6e2068617360008201527f20616c7265616479206265656e20736574000000000000000000000000000000602082015250565b7f50757263686173654578656375746f723a205f736172636f5f746f6b656e206360008201527f616e6e6f74206265203020616464726573730000000000000000000000000000602082015250565b7f50757263686173654578656375746f723a205f757364635f746f6b656e20636160008201527f6e6e6f7420626520302061646472657373000000000000000000000000000000602082015250565b620017c6816200124f565b8114620017d257600080fd5b50565b620017e08162001263565b8114620017ec57600080fd5b50565b620017fa816200128f565b81146200180657600080fd5b50565b612bbd80620018196000396000f3fe608060405234801561001057600080fd5b506004361061014d5760003560e01c8063a6ec9d12116100c3578063dd8537d71161007c578063dd8537d714610338578063ec1d1e8a14610342578063edd885b414610360578063f2fde38b1461037c578063f3fe77ec14610398578063fa569274146103c95761014d565b8063a6ec9d121461029a578063b3ec0df0146102b8578063be9a6555146102d6578063cb5b5995146102e0578063d121047c146102fe578063d13bc4131461031a5761014d565b8063715018a611610115578063715018a6146101e85780637342ec0c146101f2578063826e7796146102105780638da5cb5b14610240578063953834f81461025e5780639662dc591461027c5761014d565b8063011289e3146101525780630e8391981461017057806335a18d301461018e5780633919c756146101ac57806367ae0ffd146101ca575b600080fd5b61015a6103e7565b6040516101679190612367565b60405180910390f35b6101786103ed565b604051610185919061216f565b60405180910390f35b6101966103fa565b6040516101a3919061216f565b60405180910390f35b6101b4610407565b6040516101c19190612048565b60405180910390f35b6101d261042d565b6040516101df9190612367565b60405180910390f35b6101f0610433565b005b6101fa61056d565b6040516102079190612367565b60405180910390f35b61022a60048036038101906102259190611bd1565b610573565b6040516102379190612367565b60405180910390f35b61024861058b565b6040516102559190612048565b60405180910390f35b6102666105b4565b6040516102739190612367565b60405180910390f35b6102846105ba565b6040516102919190612367565b60405180910390f35b6102a26105c0565b6040516102af9190612048565b60405180910390f35b6102c06105e6565b6040516102cd9190612367565b60405180910390f35b6102de6105ec565b005b6102e86105f6565b6040516102f59190612367565b60405180910390f35b61031860048036038101906103139190611bd1565b6105fc565b005b61032261096b565b60405161032f9190612367565b60405180910390f35b610340610971565b005b61034a610e92565b604051610357919061218a565b60405180910390f35b61037a60048036038101906103759190611bfa565b610eb8565b005b61039660048036038101906103919190611bd1565b610f64565b005b6103b260048036038101906103ad9190611bd1565b61110d565b6040516103c0929190612382565b60405180910390f35b6103d161116e565b6040516103de919061218a565b60405180910390f35b60055481565b600080600b541415905090565b6000600c54421015905090565b600460009054906101000a900473ffffffffffffffffffffffffffffffffffffffff1681565b60065481565b61043b611194565b73ffffffffffffffffffffffffffffffffffffffff1661045961058b565b73ffffffffffffffffffffffffffffffffffffffff16146104af576040517f08c379a00000000000000000000000000000000000000000000000000000000081526004016104a690612287565b60405180910390fd5b600073ffffffffffffffffffffffffffffffffffffffff1660008054906101000a900473ffffffffffffffffffffffffffffffffffffffff1673ffffffffffffffffffffffffffffffffffffffff167f8be0079c531659141344cd1fd0a4f28419497f9722a3daafe3b4186f6b6457e060405160405180910390a360008060006101000a81548173ffffffffffffffffffffffffffffffffffffffff021916908373ffffffffffffffffffffffffffffffffffffffff160217905550565b60075481565b60096020528060005260406000206000915090505481565b60008060009054906101000a900473ffffffffffffffffffffffffffffffffffffffff16905090565b600b5481565b600a5481565b600360009054906101000a900473ffffffffffffffffffffffffffffffffffffffff1681565b600c5481565b6105f461119c565b565b60085481565b6000600b5414156106105761060f61119c565b5b600c544210610654576040517f08c379a000000000000000000000000000000000000000000000000000000000815260040161064b90612267565b60405180910390fd5b6000806106603361110d565b91509150600082116106a7576040517f08c379a000000000000000000000000000000000000000000000000000000000815260040161069e906122c7565b60405180910390fd5b6000600960003373ffffffffffffffffffffffffffffffffffffffff1673ffffffffffffffffffffffffffffffffffffffff1681526020019081526020016000208190555061073b333083600160009054906101000a900473ffffffffffffffffffffffffffffffffffffffff1673ffffffffffffffffffffffffffffffffffffffff16611329909392919063ffffffff16565b600061075e3373ffffffffffffffffffffffffffffffffffffffff1660146113b2565b61077f8573ffffffffffffffffffffffffffffffffffffffff1660146113b2565b610788856116ac565b60405160200161079a93929190611feb565b6040516020818303038152906040529050600460009054906101000a900473ffffffffffffffffffffffffffffffffffffffff1673ffffffffffffffffffffffffffffffffffffffff1663bfe07da6600160009054906101000a900473ffffffffffffffffffffffffffffffffffffffff1684846040518463ffffffff1660e01b815260040161082c939291906120ec565b600060405180830381600087803b15801561084657600080fd5b505af115801561085a573d6000803e3d6000fd5b50505050600360009054906101000a900473ffffffffffffffffffffffffffffffffffffffff1673ffffffffffffffffffffffffffffffffffffffff1663e9824d4f8585600d54600260009054906101000a900473ffffffffffffffffffffffffffffffffffffffff166040518563ffffffff1660e01b81526004016108e3949392919061212a565b600060405180830381600087803b1580156108fd57600080fd5b505af1158015610911573d6000803e3d6000fd5b505050508373ffffffffffffffffffffffffffffffffffffffff167f262152355731b9a323567e266064557ec9a5ed03bd75b80631a39eeb22e8503e848460405161095d929190612382565b60405180910390a250505050565b600d5481565b6109796103ed565b6109b8576040517f08c379a00000000000000000000000000000000000000000000000000000000081526004016109af906122a7565b60405180910390fd5b6109c06103fa565b6109ff576040517f08c379a00000000000000000000000000000000000000000000000000000000081526004016109f6906121e7565b60405180910390fd5b6000600260009054906101000a900473ffffffffffffffffffffffffffffffffffffffff1673ffffffffffffffffffffffffffffffffffffffff166370a08231306040518263ffffffff1660e01b8152600401610a5c9190612048565b60206040518083038186803b158015610a7457600080fd5b505afa158015610a88573d6000803e3d6000fd5b505050506040513d601f19601f82011682018060405250810190610aac9190611c72565b905060008111610af1576040517f08c379a0000000000000000000000000000000000000000000000000000000008152600401610ae8906122e7565b60405180910390fd5b60006040518060400160405280601d81526020017f5265636f766572656420756e736f6c6420534152434f20746f6b656e730000008152509050600460009054906101000a900473ffffffffffffffffffffffffffffffffffffffff1673ffffffffffffffffffffffffffffffffffffffff1663bfe07da6600260009054906101000a900473ffffffffffffffffffffffffffffffffffffffff1684846040518463ffffffff1660e01b8152600401610bac939291906120ec565b600060405180830381600087803b158015610bc657600080fd5b505af1158015610bda573d6000803e3d6000fd5b50505050600160009054906101000a900473ffffffffffffffffffffffffffffffffffffffff1673ffffffffffffffffffffffffffffffffffffffff1663095ea7b3600460009054906101000a900473ffffffffffffffffffffffffffffffffffffffff1660006040518363ffffffff1660e01b8152600401610c5e92919061209a565b602060405180830381600087803b158015610c7857600080fd5b505af1158015610c8c573d6000803e3d6000fd5b505050506040513d601f19601f82011682018060405250810190610cb09190611c49565b50600260009054906101000a900473ffffffffffffffffffffffffffffffffffffffff1673ffffffffffffffffffffffffffffffffffffffff1663095ea7b3600360009054906101000a900473ffffffffffffffffffffffffffffffffffffffff1660006040518363ffffffff1660e01b8152600401610d3192919061209a565b602060405180830381600087803b158015610d4b57600080fd5b505af1158015610d5f573d6000803e3d6000fd5b505050506040513d601f19601f82011682018060405250810190610d839190611c49565b50600260009054906101000a900473ffffffffffffffffffffffffffffffffffffffff1673ffffffffffffffffffffffffffffffffffffffff1663095ea7b3600460009054906101000a900473ffffffffffffffffffffffffffffffffffffffff1660006040518363ffffffff1660e01b8152600401610e0492919061209a565b602060405180830381600087803b158015610e1e57600080fd5b505af1158015610e32573d6000803e3d6000fd5b505050506040513d601f19601f82011682018060405250810190610e569190611c49565b507fbe842a2fe0dcb4d753f6d8de0884c9fe5e49f6c1e9d4c1b61d2a0c8fe165063182604051610e869190612367565b60405180910390a15050565b600260009054906101000a900473ffffffffffffffffffffffffffffffffffffffff1681565b610ec0611194565b73ffffffffffffffffffffffffffffffffffffffff16610ede61058b565b73ffffffffffffffffffffffffffffffffffffffff1614610f34576040517f08c379a0000000000000000000000000000000000000000000000000000000008152600401610f2b90612287565b60405180910390fd5b610f5f81838573ffffffffffffffffffffffffffffffffffffffff166118599092919063ffffffff16565b505050565b610f6c611194565b73ffffffffffffffffffffffffffffffffffffffff16610f8a61058b565b73ffffffffffffffffffffffffffffffffffffffff1614610fe0576040517f08c379a0000000000000000000000000000000000000000000000000000000008152600401610fd790612287565b60405180910390fd5b600073ffffffffffffffffffffffffffffffffffffffff168173ffffffffffffffffffffffffffffffffffffffff161415611050576040517f08c379a000000000000000000000000000000000000000000000000000000000815260040161104790612207565b60405180910390fd5b8073ffffffffffffffffffffffffffffffffffffffff1660008054906101000a900473ffffffffffffffffffffffffffffffffffffffff1673ffffffffffffffffffffffffffffffffffffffff167f8be0079c531659141344cd1fd0a4f28419497f9722a3daafe3b4186f6b6457e060405160405180910390a3806000806101000a81548173ffffffffffffffffffffffffffffffffffffffff021916908373ffffffffffffffffffffffffffffffffffffffff16021790555050565b6000806000600960008573ffffffffffffffffffffffffffffffffffffffff1673ffffffffffffffffffffffffffffffffffffffff168152602001908152602001600020549050600061115f826118df565b90508181935093505050915091565b600160009054906101000a900473ffffffffffffffffffffffffffffffffffffffff1681565b600033905090565b6000600b54146111e1576040517f08c379a00000000000000000000000000000000000000000000000000000000081526004016111d890612227565b60405180910390fd5b600854600260009054906101000a900473ffffffffffffffffffffffffffffffffffffffff1673ffffffffffffffffffffffffffffffffffffffff166370a08231306040518263ffffffff1660e01b815260040161123f9190612048565b60206040518083038186803b15801561125757600080fd5b505afa15801561126b573d6000803e3d6000fd5b505050506040513d601f19601f8201168201806040525081019061128f9190611c72565b146112cf576040517f08c379a00000000000000000000000000000000000000000000000000000000081526004016112c690612307565b60405180910390fd5b42600b81905550600a54426112e491906123e8565b600c819055507f20d65dc806f1ba6ab51537d616d92bf870e9c4db31557a7d0756636321802582600b54600c5460405161131f929190612382565b60405180910390a1565b6113ac846323b872dd60e01b85858560405160240161134a93929190612063565b604051602081830303815290604052907bffffffffffffffffffffffffffffffffffffffffffffffffffffffff19166020820180517bffffffffffffffffffffffffffffffffffffffffffffffffffffffff8381831617835250505050611910565b50505050565b6060600060028360026113c5919061246f565b6113cf91906123e8565b67ffffffffffffffff81111561140e577f4e487b7100000000000000000000000000000000000000000000000000000000600052604160045260246000fd5b6040519080825280601f01601f1916602001820160405280156114405781602001600182028036833780820191505090505b5090507f30000000000000000000000000000000000000000000000000000000000000008160008151811061149e577f4e487b7100000000000000000000000000000000000000000000000000000000600052603260045260246000fd5b60200101907effffffffffffffffffffffffffffffffffffffffffffffffffffffffffffff1916908160001a9053507f780000000000000000000000000000000000000000000000000000000000000081600181518110611528577f4e487b7100000000000000000000000000000000000000000000000000000000600052603260045260246000fd5b60200101907effffffffffffffffffffffffffffffffffffffffffffffffffffffffffffff1916908160001a90535060006001846002611568919061246f565b61157291906123e8565b90505b600181111561165e577f3031323334353637383961626364656600000000000000000000000000000000600f8616601081106115da577f4e487b7100000000000000000000000000000000000000000000000000000000600052603260045260246000fd5b1a60f81b828281518110611617577f4e487b7100000000000000000000000000000000000000000000000000000000600052603260045260246000fd5b60200101907effffffffffffffffffffffffffffffffffffffffffffffffffffffffffffff1916908160001a905350600485901c945080611657906125ae565b9050611575565b50600084146116a2576040517f08c379a0000000000000000000000000000000000000000000000000000000008152600401611699906121c7565b60405180910390fd5b8091505092915050565b606060008214156116f4576040518060400160405280600181526020017f30000000000000000000000000000000000000000000000000000000000000008152509050611854565b600082905060005b6000821461172657808061170f906125d8565b915050600a8261171f919061243e565b91506116fc565b60008167ffffffffffffffff811115611768577f4e487b7100000000000000000000000000000000000000000000000000000000600052604160045260246000fd5b6040519080825280601f01601f19166020018201604052801561179a5781602001600182028036833780820191505090505b5090505b6000851461184d576001826117b391906124c9565b9150600a856117c29190612621565b60306117ce91906123e8565b60f81b81838151811061180a577f4e487b7100000000000000000000000000000000000000000000000000000000600052603260045260246000fd5b60200101907effffffffffffffffffffffffffffffffffffffffffffffffffffffffffffff1916908160001a905350600a85611846919061243e565b945061179e565b8093505050505b919050565b6118da8363a9059cbb60e01b84846040516024016118789291906120c3565b604051602081830303815290604052907bffffffffffffffffffffffffffffffffffffffffffffffffffffffff19166020820180517bffffffffffffffffffffffffffffffffffffffffffffffffffffffff8381831617835250505050611910565b505050565b6000600654600754600554846118f5919061246f565b6118ff919061243e565b611909919061243e565b9050919050565b6000611972826040518060400160405280602081526020017f5361666545524332303a206c6f772d6c6576656c2063616c6c206661696c65648152508573ffffffffffffffffffffffffffffffffffffffff166119d79092919063ffffffff16565b90506000815111156119d257808060200190518101906119929190611c49565b6119d1576040517f08c379a00000000000000000000000000000000000000000000000000000000081526004016119c890612347565b60405180910390fd5b5b505050565b60606119e684846000856119ef565b90509392505050565b606082471015611a34576040517f08c379a0000000000000000000000000000000000000000000000000000000008152600401611a2b90612247565b60405180910390fd5b611a3d85611b03565b611a7c576040517f08c379a0000000000000000000000000000000000000000000000000000000008152600401611a7390612327565b60405180910390fd5b6000808673ffffffffffffffffffffffffffffffffffffffff168587604051611aa59190611fd4565b60006040518083038185875af1925050503d8060008114611ae2576040519150601f19603f3d011682016040523d82523d6000602084013e611ae7565b606091505b5091509150611af7828286611b16565b92505050949350505050565b600080823b905060008111915050919050565b60608315611b2657829050611b76565b600083511115611b395782518084602001fd5b816040517f08c379a0000000000000000000000000000000000000000000000000000000008152600401611b6d91906121a5565b60405180910390fd5b9392505050565b600081359050611b8c81612b42565b92915050565b600081519050611ba181612b59565b92915050565b600081359050611bb681612b70565b92915050565b600081519050611bcb81612b70565b92915050565b600060208284031215611be357600080fd5b6000611bf184828501611b7d565b91505092915050565b600080600060608486031215611c0f57600080fd5b6000611c1d86828701611b7d565b9350506020611c2e86828701611ba7565b9250506040611c3f86828701611b7d565b9150509250925092565b600060208284031215611c5b57600080fd5b6000611c6984828501611b92565b91505092915050565b600060208284031215611c8457600080fd5b6000611c9284828501611bbc565b91505092915050565b611ca4816124fd565b82525050565b611cb38161250f565b82525050565b6000611cc4826123ab565b611cce81856123c1565b9350611cde81856020860161257b565b80840191505092915050565b611cf381612545565b82525050565b611d0281612569565b82525050565b6000611d13826123b6565b611d1d81856123cc565b9350611d2d81856020860161257b565b611d36816126b0565b840191505092915050565b6000611d4c826123b6565b611d5681856123dd565b9350611d6681856020860161257b565b80840191505092915050565b6000611d7f6020836123cc565b9150611d8a826126c1565b602082019050919050565b6000611da26034836123cc565b9150611dad826126ea565b604082019050919050565b6000611dc56026836123cc565b9150611dd082612739565b604082019050919050565b6000611de8602b836123cc565b9150611df382612788565b604082019050919050565b6000611e0b601a836123dd565b9150611e16826127d7565b601a82019050919050565b6000611e2e6026836123cc565b9150611e3982612800565b604082019050919050565b6000611e516001836123dd565b9150611e5c8261284f565b600182019050919050565b6000611e746046836123cc565b9150611e7f82612878565b606082019050919050565b6000611e976020836123cc565b9150611ea2826128ed565b602082019050919050565b6000611eba600e836123dd565b9150611ec582612916565b600e82019050919050565b6000611edd6034836123cc565b9150611ee88261293f565b604082019050919050565b6000611f006039836123cc565b9150611f0b8261298e565b604082019050919050565b6000611f236036836123cc565b9150611f2e826129dd565b604082019050919050565b6000611f466044836123cc565b9150611f5182612a2c565b606082019050919050565b6000611f69601d836123cc565b9150611f7482612aa1565b602082019050919050565b6000611f8c601e836123dd565b9150611f9782612aca565b601e82019050919050565b6000611faf602a836123cc565b9150611fba82612af3565b604082019050919050565b611fce8161253b565b82525050565b6000611fe08284611cb9565b915081905092915050565b6000611ff682611f7f565b91506120028286611d41565b915061200d82611ead565b91506120198285611d41565b915061202482611dfe565b91506120308284611d41565b915061203b82611e44565b9150819050949350505050565b600060208201905061205d6000830184611c9b565b92915050565b60006060820190506120786000830186611c9b565b6120856020830185611c9b565b6120926040830184611fc5565b949350505050565b60006040820190506120af6000830185611c9b565b6120bc6020830184611cf9565b9392505050565b60006040820190506120d86000830185611c9b565b6120e56020830184611fc5565b9392505050565b60006060820190506121016000830186611c9b565b61210e6020830185611fc5565b81810360408301526121208184611d08565b9050949350505050565b600060808201905061213f6000830187611c9b565b61214c6020830186611fc5565b6121596040830185611fc5565b6121666060830184611c9b565b95945050505050565b60006020820190506121846000830184611caa565b92915050565b600060208201905061219f6000830184611cea565b92915050565b600060208201905081810360008301526121bf8184611d08565b905092915050565b600060208201905081810360008301526121e081611d72565b9050919050565b6000602082019050818103600083015261220081611d95565b9050919050565b6000602082019050818103600083015261222081611db8565b9050919050565b6000602082019050818103600083015261224081611ddb565b9050919050565b6000602082019050818103600083015261226081611e21565b9050919050565b6000602082019050818103600083015261228081611e67565b9050919050565b600060208201905081810360008301526122a081611e8a565b9050919050565b600060208201905081810360008301526122c081611ed0565b9050919050565b600060208201905081810360008301526122e081611ef3565b9050919050565b6000602082019050818103600083015261230081611f16565b9050919050565b6000602082019050818103600083015261232081611f39565b9050919050565b6000602082019050818103600083015261234081611f5c565b9050919050565b6000602082019050818103600083015261236081611fa2565b9050919050565b600060208201905061237c6000830184611fc5565b92915050565b60006040820190506123976000830185611fc5565b6123a46020830184611fc5565b9392505050565b600081519050919050565b600081519050919050565b600081905092915050565b600082825260208201905092915050565b600081905092915050565b60006123f38261253b565b91506123fe8361253b565b9250827fffffffffffffffffffffffffffffffffffffffffffffffffffffffffffffffff0382111561243357612432612652565b5b828201905092915050565b60006124498261253b565b91506124548361253b565b92508261246457612463612681565b5b828204905092915050565b600061247a8261253b565b91506124858361253b565b9250817fffffffffffffffffffffffffffffffffffffffffffffffffffffffffffffffff04831182151516156124be576124bd612652565b5b828202905092915050565b60006124d48261253b565b91506124df8361253b565b9250828210156124f2576124f1612652565b5b828203905092915050565b60006125088261251b565b9050919050565b60008115159050919050565b600073ffffffffffffffffffffffffffffffffffffffff82169050919050565b6000819050919050565b600061255082612557565b9050919050565b60006125628261251b565b9050919050565b60006125748261253b565b9050919050565b60005b8381101561259957808201518184015260208101905061257e565b838111156125a8576000848401525b50505050565b60006125b98261253b565b915060008214156125cd576125cc612652565b5b600182039050919050565b60006125e38261253b565b91507fffffffffffffffffffffffffffffffffffffffffffffffffffffffffffffffff82141561261657612615612652565b5b600182019050919050565b600061262c8261253b565b91506126378361253b565b92508261264757612646612681565b5b828206905092915050565b7f4e487b7100000000000000000000000000000000000000000000000000000000600052601160045260246000fd5b7f4e487b7100000000000000000000000000000000000000000000000000000000600052601260045260246000fd5b6000601f19601f8301169050919050565b7f537472696e67733a20686578206c656e67746820696e73756666696369656e74600082015250565b7f50757263686173654578656375746f723a205075726368617365206f6666657260008201527f20686173206e6f74207965742065787069726564000000000000000000000000602082015250565b7f4f776e61626c653a206e6577206f776e657220697320746865207a65726f206160008201527f6464726573730000000000000000000000000000000000000000000000000000602082015250565b7f50757263686173654578656375746f723a204f666665722068617320616c726560008201527f6164792073746172746564000000000000000000000000000000000000000000602082015250565b7f2e20546f74616c20534152434f73205075726368617365643a20000000000000600082015250565b7f416464726573733a20696e73756666696369656e742062616c616e636520666f60008201527f722063616c6c0000000000000000000000000000000000000000000000000000602082015250565b7f2e00000000000000000000000000000000000000000000000000000000000000600082015250565b7f50757263686173654578656375746f723a205075726368617365732063616e6e60008201527f6f74206265206d61646520616674657220746865206f6666657220686173206560208201527f7870697265640000000000000000000000000000000000000000000000000000604082015250565b7f4f776e61626c653a2063616c6c6572206973206e6f7420746865206f776e6572600082015250565b7f20666f72206163636f756e743a20000000000000000000000000000000000000600082015250565b7f50757263686173654578656375746f723a205075726368617365206f6666657260008201527f20686173206e6f74207965742073746172746564000000000000000000000000602082015250565b7f50757263686173654578656375746f723a2073656e64657220646f6573206e6f60008201527f742068617665206120534152434f20616c6c6f636174696f6e00000000000000602082015250565b7f50757263686173654578656375746f723a20546865726520617265206e6f205360008201527f6172636f20746f6b656e7320746f207265636f76657200000000000000000000602082015250565b7f50757263686173654578656375746f723a20496e73756666696369656e74205360008201527f6172636f20636f6e74726163742062616c616e636520746f207374617274206f60208201527f6666657200000000000000000000000000000000000000000000000000000000604082015250565b7f416464726573733a2063616c6c20746f206e6f6e2d636f6e7472616374000000600082015250565b7f5075726368617365204578656375746564206279206163636f756e743a200000600082015250565b7f5361666545524332303a204552433230206f7065726174696f6e20646964206e60008201527f6f74207375636365656400000000000000000000000000000000000000000000602082015250565b612b4b816124fd565b8114612b5657600080fd5b50565b612b628161250f565b8114612b6d57600080fd5b50565b612b798161253b565b8114612b8457600080fd5b5056fea26469706673582212208674378ea11f233f7c3ff903737f92cb39d4c907e6a58d55f5fc91e2abffbe2664736f6c63430008040033",
  "devdoc": {
    "details": "allow a whitelisted set of addresses to purchase SARCO tokens, for stablecoins (USDC), at a set rate",
    "kind": "dev",
    "methods": {
      "constructor": {
        "details": "inits/sets sarco purchase enviorment",
        "params": {
          "_general_token_vesting": "GeneralTokenVesting contract address",
          "_offer_expiration_delay": "Delay from the contract deployment to offer expiration, in seconds",
          "_sarco_allocations": "List of SARCO token allocations, should include decimals 10 ** 18",
          "_sarco_allocations_total": "Checksum of SARCO token allocations, should include decimals 10 ** 18",
          "_sarco_dao": "Sarco DAO contract address",
          "_sarco_purchasers": "List of valid SARCO purchasers",
          "_sarco_token": "Sarco token address",
          "_usdc_to_sarco_rate": "How much SARCO one gets for one USDC",
          "_usdc_token": "USDC token address",
          "_vesting_end_delay": "Delay from the purchase moment to the vesting end moment, in seconds"
        }
      },
      "execute_purchase(address)": {
        "details": "Purchases Sarco for the specified address in exchange for USDC.",
        "params": {
          "sarco_receiver": "Whitelisted Sarco Purchaser"
        }
      },
      "get_allocation(address)": {
        "details": "Returns the Sarco allocation and the USDC cost to purchase the Sarco Allocation of the whitelisted Sarco Purchaser",
        "params": {
          "sarco_receiver": "Whitelisted Sarco Purchaser"
        },
        "returns": {
          "_0": "A tuple: the first element is the amount of SARCO available for purchase (zero if the purchase was already executed for that address), the second element is the USDC cost of the purchase."
        }
      },
      "owner()": {
        "details": "Returns the address of the current owner."
      },
      "recover_erc20(address,uint256,address)": {
        "details": "Remember that only owner can call so be careful when use on contracts generated from other contracts.",
        "params": {
          "recipientAddress": "The address to send tokens to",
          "tokenAddress": "The token contract address",
          "tokenAmount": "Number of tokens to be sent"
        }
      },
      "recover_unsold_tokens()": {
        "details": "If unsold_sarco_amount > 0 after the offer expired, sarco tokens are send back to Sarco Dao via Finance Contract."
      },
      "renounceOwnership()": {
        "details": "Leaves the contract without owner. It will not be possible to call `onlyOwner` functions anymore. Can only be called by the current owner. NOTE: Renouncing ownership will leave the contract without an owner, thereby removing any functionality that is only available to the owner."
      },
      "transferOwnership(address)": {
        "details": "Transfers ownership of the contract to a new account (`newOwner`). Can only be called by the current owner."
      }
    },
    "title": "PurchaseExecutor",
    "version": 1
  },
  "userdoc": {
    "kind": "user",
    "methods": {
      "execute_purchase(address)": {
        "notice": "Sends USDC tokens used to purchase Sarco to Sarco DAO,  Approves GeneralTokenVesting contract Sarco Tokens to utilizes allocated Sarco funds, Starts token vesting via GeneralTokenVesting contract."
      }
    },
    "version": 1
  },
  "storageLayout": {
    "storage": [
      {
        "astId": 7,
        "contract": "contracts/PurchaseExecutor.sol:PurchaseExecutor",
        "label": "_owner",
        "offset": 0,
        "slot": "0",
        "type": "t_address"
      },
      {
        "astId": 950,
        "contract": "contracts/PurchaseExecutor.sol:PurchaseExecutor",
        "label": "USDC_TOKEN",
        "offset": 0,
        "slot": "1",
        "type": "t_contract(IERC20)187"
      },
      {
        "astId": 953,
        "contract": "contracts/PurchaseExecutor.sol:PurchaseExecutor",
        "label": "SARCO_TOKEN",
        "offset": 0,
        "slot": "2",
        "type": "t_contract(IERC20)187"
      },
      {
        "astId": 955,
        "contract": "contracts/PurchaseExecutor.sol:PurchaseExecutor",
        "label": "GENERAL_TOKEN_VESTING",
        "offset": 0,
        "slot": "3",
        "type": "t_address"
      },
      {
        "astId": 957,
        "contract": "contracts/PurchaseExecutor.sol:PurchaseExecutor",
        "label": "SARCO_DAO",
        "offset": 0,
        "slot": "4",
        "type": "t_address"
      },
      {
        "astId": 962,
        "contract": "contracts/PurchaseExecutor.sol:PurchaseExecutor",
        "label": "usdc_to_sarco_precision",
        "offset": 0,
        "slot": "5",
        "type": "t_uint256"
      },
      {
        "astId": 970,
        "contract": "contracts/PurchaseExecutor.sol:PurchaseExecutor",
        "label": "sarco_to_usdc_decimal_fix",
        "offset": 0,
        "slot": "6",
        "type": "t_uint256"
      },
      {
        "astId": 972,
        "contract": "contracts/PurchaseExecutor.sol:PurchaseExecutor",
        "label": "usdc_to_sarco_rate",
        "offset": 0,
        "slot": "7",
        "type": "t_uint256"
      },
      {
        "astId": 974,
        "contract": "contracts/PurchaseExecutor.sol:PurchaseExecutor",
        "label": "sarco_allocations_total",
        "offset": 0,
        "slot": "8",
        "type": "t_uint256"
      },
      {
        "astId": 978,
        "contract": "contracts/PurchaseExecutor.sol:PurchaseExecutor",
        "label": "sarco_allocations",
        "offset": 0,
        "slot": "9",
        "type": "t_mapping(t_address,t_uint256)"
      },
      {
        "astId": 980,
        "contract": "contracts/PurchaseExecutor.sol:PurchaseExecutor",
        "label": "offer_expiration_delay",
        "offset": 0,
        "slot": "10",
        "type": "t_uint256"
      },
      {
        "astId": 982,
        "contract": "contracts/PurchaseExecutor.sol:PurchaseExecutor",
        "label": "offer_started_at",
        "offset": 0,
        "slot": "11",
        "type": "t_uint256"
      },
      {
        "astId": 984,
        "contract": "contracts/PurchaseExecutor.sol:PurchaseExecutor",
        "label": "offer_expires_at",
        "offset": 0,
        "slot": "12",
        "type": "t_uint256"
      },
      {
        "astId": 986,
        "contract": "contracts/PurchaseExecutor.sol:PurchaseExecutor",
        "label": "vesting_end_delay",
        "offset": 0,
        "slot": "13",
        "type": "t_uint256"
      }
    ],
    "types": {
      "t_address": {
        "encoding": "inplace",
        "label": "address",
        "numberOfBytes": "20"
      },
      "t_contract(IERC20)187": {
        "encoding": "inplace",
        "label": "contract IERC20",
        "numberOfBytes": "20"
      },
      "t_mapping(t_address,t_uint256)": {
        "encoding": "mapping",
        "key": "t_address",
        "label": "mapping(address => uint256)",
        "numberOfBytes": "32",
        "value": "t_uint256"
      },
      "t_uint256": {
        "encoding": "inplace",
        "label": "uint256",
        "numberOfBytes": "32"
      }
    }
  }
}